{
  "contractName": "Test",
  "abi": [
    {
      "constant": true,
      "inputs": [
        {
          "internalType": "uint256",
          "name": "",
          "type": "uint256"
        }
      ],
      "name": "images",
      "outputs": [
        {
          "internalType": "string",
          "name": "path",
          "type": "string"
        },
        {
          "internalType": "string",
          "name": "description",
          "type": "string"
        },
        {
          "internalType": "address payable",
          "name": "account",
          "type": "address"
        },
        {
          "internalType": "uint256",
          "name": "tip",
          "type": "uint256"
        }
      ],
      "payable": false,
      "stateMutability": "view",
      "type": "function"
    },
    {
      "constant": true,
      "inputs": [],
      "name": "index",
      "outputs": [
        {
          "internalType": "uint256",
          "name": "",
          "type": "uint256"
        }
      ],
      "payable": false,
      "stateMutability": "view",
      "type": "function"
    },
    {
      "constant": false,
      "inputs": [
        {
          "internalType": "string",
          "name": "_path",
          "type": "string"
        },
        {
          "internalType": "string",
          "name": "_description",
          "type": "string"
        }
      ],
      "name": "uploadImage",
      "outputs": [],
      "payable": false,
      "stateMutability": "nonpayable",
      "type": "function"
    }
  ],
  "bytecode": "0x60806040526000805534801561001457600080fd5b50610652806100246000396000f3fe608060405234801561001057600080fd5b50600436106100415760003560e01c80632986c0e5146100465780638485648214610064578063a91b8314146101b1575b600080fd5b61004e610303565b6040518082815260200191505060405180910390f35b6100906004803603602081101561007a57600080fd5b8101908080359060200190929190505050610309565b6040518080602001806020018573ffffffffffffffffffffffffffffffffffffffff1673ffffffffffffffffffffffffffffffffffffffff168152602001848152602001838103835287818151815260200191508051906020019080838360005b8381101561010c5780820151818401526020810190506100f1565b50505050905090810190601f1680156101395780820380516001836020036101000a031916815260200191505b50838103825286818151815260200191508051906020019080838360005b83811015610172578082015181840152602081019050610157565b50505050905090810190601f16801561019f5780820380516001836020036101000a031916815260200191505b50965050505050505060405180910390f35b610301600480360360408110156101c757600080fd5b81019080803590602001906401000000008111156101e457600080fd5b8201836020820111156101f657600080fd5b8035906020019184600183028401116401000000008311171561021857600080fd5b91908080601f016020809104026020016040519081016040528093929190818152602001838380828437600081840152601f19601f8201169050808301925050505050505091929192908035906020019064010000000081111561027b57600080fd5b82018360208201111561028d57600080fd5b803590602001918460018302840111640100000000831117156102af57600080fd5b91908080601f016020809104026020016040519081016040528093929190818152602001838380828437600081840152601f19601f820116905080830192505050505050509192919290505050610489565b005b60005481565b6001602052806000526040600020600091509050806000018054600181600116156101000203166002900480601f0160208091040260200160405190810160405280929190818152602001828054600181600116156101000203166002900480156103b55780601f1061038a576101008083540402835291602001916103b5565b820191906000526020600020905b81548152906001019060200180831161039857829003601f168201915b505050505090806001018054600181600116156101000203166002900480601f0160208091040260200160405190810160405280929190818152602001828054600181600116156101000203166002900480156104535780601f1061042857610100808354040283529160200191610453565b820191906000526020600020905b81548152906001019060200180831161043657829003601f168201915b5050505050908060020160009054906101000a900473ffffffffffffffffffffffffffffffffffffffff16908060030154905084565b600080815480929190600101919050555060405180608001604052808381526020018281526020013373ffffffffffffffffffffffffffffffffffffffff168152602001600081525060016000805481526020019081526020016000206000820151816000019080519060200190610502929190610578565b50602082015181600101908051906020019061051f929190610578565b5060408201518160020160006101000a81548173ffffffffffffffffffffffffffffffffffffffff021916908373ffffffffffffffffffffffffffffffffffffffff160217905550606082015181600301559050505050565b828054600181600116156101000203166002900490600052602060002090601f016020900481019282601f106105b957805160ff19168380011785556105e7565b828001600101855582156105e7579182015b828111156105e65782518255916020019190600101906105cb565b5b5090506105f491906105f8565b5090565b61061a91905b808211156106165760008160009055506001016105fe565b5090565b9056fea265627a7a723158208e982a3239b727c27706b9253945a148b1353595c5038b30467b0347ad79a1e364736f6c63430005100032",
  "source": "pragma solidity >=0.4.21 <0.9.0;\n\ncontract Test {\n    uint256 public index = 0;\n    struct Image {\n        string path;\n        string description;\n        address payable account;\n        uint256 tip;\n    }\n    mapping(uint256 => Image) public images;\n\n    function uploadImage(string memory _path, string memory _description)\n        public\n    {\n        index++;\n        images[index] = Image(_path, _description, msg.sender, 0);\n    }\n}\n",
  "sourcePath": "C:\\Users\\Alamin (Programmer)\\Desktop\\Blockchain-App\\5Dapp\\decentragram-smartcontract\\contracts\\Test.sol",
  "compiler": {
    "name": "solc",
    "version": "0.5.16+commit.9c3226ce.Emscripten.clang"
  },
  "schemaVersion": "3.4.3",
  "updatedAt": "2021-10-28T08:51:02.080Z",
  "networkType": "ethereum",
  "devdoc": {
    "methods": {}
  },
  "userdoc": {
    "methods": {}
  }
}